{
  "contractName": "Game",
  "abi": [
    {
      "constant": true,
      "inputs": [],
      "name": "turnVariable",
      "outputs": [
        {
          "name": "",
          "type": "uint8"
        }
      ],
      "payable": false,
      "stateMutability": "view",
      "type": "function"
    },
    {
      "constant": true,
      "inputs": [],
      "name": "player2",
      "outputs": [
        {
          "name": "addressOfPlayer",
          "type": "address"
        },
        {
          "name": "serialNo",
          "type": "uint8"
        },
        {
          "name": "bet",
          "type": "uint8"
        }
      ],
      "payable": false,
      "stateMutability": "view",
      "type": "function"
    },
    {
      "constant": true,
      "inputs": [],
      "name": "player1",
      "outputs": [
        {
          "name": "addressOfPlayer",
          "type": "address"
        },
        {
          "name": "serialNo",
          "type": "uint8"
        },
        {
          "name": "bet",
          "type": "uint8"
        }
      ],
      "payable": false,
      "stateMutability": "view",
      "type": "function"
    },
    {
      "inputs": [],
      "payable": false,
      "stateMutability": "nonpayable",
      "type": "constructor"
    },
    {
      "anonymous": false,
      "inputs": [
        {
          "indexed": false,
          "name": "value",
          "type": "bool"
        }
      ],
      "name": "bothHaveLockedChoiceEvent",
      "type": "event"
    },
    {
      "anonymous": false,
      "inputs": [
        {
          "indexed": false,
          "name": "tileNumber",
          "type": "uint256"
        },
        {
          "indexed": false,
          "name": "hitAddress",
          "type": "address"
        }
      ],
      "name": "hitTileEvent",
      "type": "event"
    },
    {
      "anonymous": false,
      "inputs": [
        {
          "indexed": false,
          "name": "who",
          "type": "address"
        }
      ],
      "name": "TestEvent",
      "type": "event"
    },
    {
      "anonymous": false,
      "inputs": [
        {
          "indexed": false,
          "name": "addressOfPlayer",
          "type": "address"
        },
        {
          "indexed": false,
          "name": "choiceHash",
          "type": "bytes32[100]"
        },
        {
          "indexed": false,
          "name": "serialNo",
          "type": "uint8"
        }
      ],
      "name": "PlayerEvent",
      "type": "event"
    },
    {
      "anonymous": false,
      "inputs": [
        {
          "indexed": false,
          "name": "consolevalue",
          "type": "string"
        }
      ],
      "name": "consoleEvent",
      "type": "event"
    },
    {
      "anonymous": false,
      "inputs": [
        {
          "indexed": false,
          "name": "consolevalue",
          "type": "uint8"
        }
      ],
      "name": "uintconsoleEvent",
      "type": "event"
    },
    {
      "anonymous": false,
      "inputs": [
        {
          "indexed": false,
          "name": "consolevalue",
          "type": "bytes"
        }
      ],
      "name": "bytesConsoleEvent",
      "type": "event"
    },
    {
      "anonymous": false,
      "inputs": [
        {
          "indexed": false,
          "name": "consolevalue",
          "type": "bytes32"
        }
      ],
      "name": "bytes32ConsoleEvent",
      "type": "event"
    },
    {
      "anonymous": false,
      "inputs": [
        {
          "indexed": false,
          "name": "consolevalue",
          "type": "bytes32[100]"
        },
        {
          "indexed": false,
          "name": "who",
          "type": "address"
        }
      ],
      "name": "bytes32ArrayConsoleEvent",
      "type": "event"
    },
    {
      "anonymous": false,
      "inputs": [
        {
          "indexed": false,
          "name": "value",
          "type": "uint8"
        },
        {
          "indexed": false,
          "name": "revealToAddress",
          "type": "address"
        },
        {
          "indexed": false,
          "name": "isHit",
          "type": "bool"
        }
      ],
      "name": "revealTitleEvent",
      "type": "event"
    },
    {
      "constant": false,
      "inputs": [],
      "name": "register",
      "outputs": [],
      "payable": false,
      "stateMutability": "nonpayable",
      "type": "function"
    },
    {
      "constant": false,
      "inputs": [
        {
          "name": "choiceHash",
          "type": "bytes32[100]"
        }
      ],
      "name": "setShips",
      "outputs": [],
      "payable": false,
      "stateMutability": "nonpayable",
      "type": "function"
    },
    {
      "constant": true,
      "inputs": [],
      "name": "whoAmI",
      "outputs": [
        {
          "name": "",
          "type": "uint8"
        }
      ],
      "payable": false,
      "stateMutability": "view",
      "type": "function"
    },
    {
      "constant": true,
      "inputs": [],
      "name": "getLength",
      "outputs": [
        {
          "name": "",
          "type": "uint256"
        }
      ],
      "payable": false,
      "stateMutability": "view",
      "type": "function"
    },
    {
      "constant": false,
      "inputs": [
        {
          "name": "tileNumber",
          "type": "uint256"
        }
      ],
      "name": "hitTile",
      "outputs": [],
      "payable": false,
      "stateMutability": "nonpayable",
      "type": "function"
    },
    {
      "constant": false,
      "inputs": [
        {
          "name": "pos",
          "type": "uint8"
        },
        {
          "name": "randomKey",
          "type": "uint8"
        },
        {
          "name": "value",
          "type": "uint8"
        }
      ],
      "name": "revealTile",
      "outputs": [],
      "payable": false,
      "stateMutability": "nonpayable",
      "type": "function"
    }
  ],
  "bytecode": "0x6080604052600060d460006101000a81548160ff021916908315150217905550600060d460016101000a81548160ff021916908360ff16021790555034801561004757600080fd5b50610ef7806100576000396000f3fe608060405234801561001057600080fd5b50600436106100935760003560e01c806369547fc71161006657806369547fc714610191578063ab9a37c9146101dc578063be1c766b1461020a578063d30895e414610228578063da91254c1461028c57610093565b80630f6e2bb9146100985780631aa3a008146100ff5780631dcef2641461010957806359a5f12d1461012d575b600080fd5b6100fd6004803603610c808110156100af57600080fd5b8101908080610c8001906064806020026040519081016040528092919082606460200280828437600081840152601f19601f82011690508083019250505050505091929192905050506102b0565b005b610107610480565b005b61011161061c565b604051808260ff1660ff16815260200191505060405180910390f35b61013561062f565b604051808473ffffffffffffffffffffffffffffffffffffffff1673ffffffffffffffffffffffffffffffffffffffff1681526020018360ff1660ff1681526020018260ff1660ff168152602001935050505060405180910390f35b6101da600480360360608110156101a757600080fd5b81019080803560ff169060200190929190803560ff169060200190929190803560ff169060200190929190505050610681565b005b610208600480360360208110156101f257600080fd5b8101908080359060200190929190505050610b2c565b005b610212610d42565b6040518082815260200191505060405180910390f35b610230610d4b565b604051808473ffffffffffffffffffffffffffffffffffffffff1673ffffffffffffffffffffffffffffffffffffffff1681526020018360ff1660ff1681526020018260ff1660ff168152602001935050505060405180910390f35b610294610d9d565b604051808260ff1660ff16815260200191505060405180910390f35b6000800160009054906101000a900473ffffffffffffffffffffffffffffffffffffffff1673ffffffffffffffffffffffffffffffffffffffff163373ffffffffffffffffffffffffffffffffffffffff1614156103505780600060010190606461031c929190610e66565b50600160d460018282829054906101000a900460ff160192506101000a81548160ff021916908360ff1602179055506103ee565b606a60000160009054906101000a900473ffffffffffffffffffffffffffffffffffffffff1673ffffffffffffffffffffffffffffffffffffffff163373ffffffffffffffffffffffffffffffffffffffff1614156103ed5780606a6001019060646103bd929190610e66565b50600160d460018282829054906101000a900460ff160192506101000a81548160ff021916908360ff1602179055505b5b600260d460019054906101000a900460ff1660ff16141561047d57600160d460006101000a81548160ff021916908315150217905550600160d460026101000a81548160ff021916908360ff1602179055507f44af08cec1b48a2e01ffb8f404d07e13ac6d7cb026f6d99bc0a7b474a3d56b6d6001604051808215151515815260200191505060405180910390a15b50565b600073ffffffffffffffffffffffffffffffffffffffff166000800160009054906101000a900473ffffffffffffffffffffffffffffffffffffffff1673ffffffffffffffffffffffffffffffffffffffff16141561053f57336000800160006101000a81548173ffffffffffffffffffffffffffffffffffffffff021916908373ffffffffffffffffffffffffffffffffffffffff16021790555060016000800160146101000a81548160ff021916908360ff1602179055506105fe565b600073ffffffffffffffffffffffffffffffffffffffff16606a60000160009054906101000a900473ffffffffffffffffffffffffffffffffffffffff1673ffffffffffffffffffffffffffffffffffffffff1614156105fd5733606a60000160006101000a81548173ffffffffffffffffffffffffffffffffffffffff021916908373ffffffffffffffffffffffffffffffffffffffff1602179055506002606a60000160146101000a81548160ff021916908360ff1602179055505b5b600060d460016101000a81548160ff021916908360ff160217905550565b60d460029054906101000a900460ff1681565b606a8060000160009054906101000a900473ffffffffffffffffffffffffffffffffffffffff16908060000160149054906101000a900460ff16908060690160009054906101000a900460ff16905083565b6000800160009054906101000a900473ffffffffffffffffffffffffffffffffffffffff1673ffffffffffffffffffffffffffffffffffffffff163373ffffffffffffffffffffffffffffffffffffffff1614156108d65760006001018360ff16606481106106ec57fe5b01548282604051602001808360ff1660ff1660f81b81526001018260ff1660ff1660f81b815260010192505050604051602081830303815290604052805190602001201415610811578060006065018460ff166064811061074957fe5b602091828204019190066101000a81548160ff021916908360ff1602179055507fd91a3b70038820147ac025ee2335d559050cbb950b71aa9c062c0effe4a6827281606a60000160009054906101000a900473ffffffffffffffffffffffffffffffffffffffff166001604051808460ff1660ff1681526020018373ffffffffffffffffffffffffffffffffffffffff1673ffffffffffffffffffffffffffffffffffffffff16815260200182151515158152602001935050505060405180910390a16108b5565b7fd91a3b70038820147ac025ee2335d559050cbb950b71aa9c062c0effe4a6827281606a60000160009054906101000a900473ffffffffffffffffffffffffffffffffffffffff166000604051808460ff1660ff1681526020018373ffffffffffffffffffffffffffffffffffffffff1673ffffffffffffffffffffffffffffffffffffffff16815260200182151515158152602001935050505060405180910390a15b600160d460026101000a81548160ff021916908360ff160217905550610b27565b606a60000160009054906101000a900473ffffffffffffffffffffffffffffffffffffffff1673ffffffffffffffffffffffffffffffffffffffff163373ffffffffffffffffffffffffffffffffffffffff161415610b2657606a6001018360ff166064811061094257fe5b01548282604051602001808360ff1660ff1660f81b81526001018260ff1660ff1660f81b815260010192505050604051602081830303815290604052805190602001201415610a66578060006065018460ff166064811061099f57fe5b602091828204019190066101000a81548160ff021916908360ff1602179055507fd91a3b70038820147ac025ee2335d559050cbb950b71aa9c062c0effe4a68272816000800160009054906101000a900473ffffffffffffffffffffffffffffffffffffffff166001604051808460ff1660ff1681526020018373ffffffffffffffffffffffffffffffffffffffff1673ffffffffffffffffffffffffffffffffffffffff16815260200182151515158152602001935050505060405180910390a1610b09565b7fd91a3b70038820147ac025ee2335d559050cbb950b71aa9c062c0effe4a68272816000800160009054906101000a900473ffffffffffffffffffffffffffffffffffffffff166001604051808460ff1660ff1681526020018373ffffffffffffffffffffffffffffffffffffffff1673ffffffffffffffffffffffffffffffffffffffff16815260200182151515158152602001935050505060405180910390a15b600260d460026101000a81548160ff021916908360ff1602179055505b5b505050565b3373ffffffffffffffffffffffffffffffffffffffff166000800160009054906101000a900473ffffffffffffffffffffffffffffffffffffffff1673ffffffffffffffffffffffffffffffffffffffff16148015610b9d5750600160d460029054906101000a900460ff1660ff16145b15610c37577facb31fb91eac05ee328659eb82f4d814e6b9865207da6fe009d62620717e842b81606a60000160009054906101000a900473ffffffffffffffffffffffffffffffffffffffff16604051808381526020018273ffffffffffffffffffffffffffffffffffffffff1673ffffffffffffffffffffffffffffffffffffffff1681526020019250505060405180910390a1610d3f565b3373ffffffffffffffffffffffffffffffffffffffff16606a60000160009054906101000a900473ffffffffffffffffffffffffffffffffffffffff1673ffffffffffffffffffffffffffffffffffffffff16148015610ca95750600260d460029054906101000a900460ff1660ff16145b15610d3e577facb31fb91eac05ee328659eb82f4d814e6b9865207da6fe009d62620717e842b816000800160009054906101000a900473ffffffffffffffffffffffffffffffffffffffff16604051808381526020018273ffffffffffffffffffffffffffffffffffffffff1673ffffffffffffffffffffffffffffffffffffffff1681526020019250505060405180910390a15b5b50565b60006064905090565b60008060000160009054906101000a900473ffffffffffffffffffffffffffffffffffffffff16908060000160149054906101000a900460ff16908060690160009054906101000a900460ff16905083565b60003373ffffffffffffffffffffffffffffffffffffffff166000800160009054906101000a900473ffffffffffffffffffffffffffffffffffffffff1673ffffffffffffffffffffffffffffffffffffffff161415610e005760019050610e63565b3373ffffffffffffffffffffffffffffffffffffffff16606a60000160009054906101000a900473ffffffffffffffffffffffffffffffffffffffff1673ffffffffffffffffffffffffffffffffffffffff161415610e625760029050610e63565b5b90565b8260648101928215610e95579160200282015b82811115610e94578251825591602001919060010190610e79565b5b509050610ea29190610ea6565b5090565b610ec891905b80821115610ec4576000816000905550600101610eac565b5090565b9056fea165627a7a723058208a7ea80042ef568a391a31e7e97c47d8b6aaa6c79213db0a619ef1bfd801bb310029",
  "source": "pragma solidity ^0.5.0;\r\n\r\ncontract Game {\r\n\r\n    struct Player{\r\n        address payable addressOfPlayer;\r\n        uint8 serialNo;\r\n        bytes32[100] choiceHash;\r\n        uint8[100] choice;\r\n        uint8 bet;\r\n    }\r\n\r\n    Player public player1;\r\n    Player public player2;\r\n\r\n    bool bothHaveLockedChoices = false;\r\n    uint8 countForLockingChoice = 0;\r\n    uint8 public turnVariable;\r\n\r\nevent bothHaveLockedChoiceEvent(bool value);\r\nevent hitTileEvent(uint tileNumber, address hitAddress);\r\n\r\nevent TestEvent(address who);   // declaring event\r\nevent PlayerEvent(address addressOfPlayer, bytes32[100] choiceHash, uint8 serialNo);\r\n\r\nevent consoleEvent(string consolevalue);\r\nevent uintconsoleEvent(uint8 consolevalue);\r\nevent bytesConsoleEvent(bytes consolevalue);\r\nevent bytes32ConsoleEvent(bytes32 consolevalue);\r\nevent bytes32ArrayConsoleEvent(bytes32[100] consolevalue,address who);\r\n\r\nevent revealTitleEvent(uint8 value ,  address revealToAddress,bool isHit);\r\n\r\n\tconstructor() public {\r\n\t}\r\n\r\n    function register() public    {\r\n        if (player1.addressOfPlayer == address(0)){\r\n            player1.addressOfPlayer = msg.sender;\r\n            player1.serialNo = 1;\r\n        }\r\n        else if (player2.addressOfPlayer == address(0)){\r\n             player2.addressOfPlayer = msg.sender;\r\n             player2.serialNo = 2;\r\n        }\r\n        // Both have to register and then only play\r\n        countForLockingChoice = 0;\r\n    }\r\n\r\n    function setShips(bytes32[100] memory choiceHash) public {\r\n        if (msg.sender == player1.addressOfPlayer ){\r\n            player1.choiceHash = choiceHash;\r\n            countForLockingChoice += 1;\r\n        }\r\n        else if (msg.sender == player2.addressOfPlayer){\r\n            player2.choiceHash = choiceHash;\r\n            countForLockingChoice += 1;\r\n        }\r\n        if(countForLockingChoice == 2){\r\n            bothHaveLockedChoices = true;\r\n            turnVariable = 1;\r\n            emit bothHaveLockedChoiceEvent(true);\r\n        }\r\n\r\n    }\r\n\r\n    function whoAmI() public view returns (uint8){\r\n        if (player1.addressOfPlayer == msg.sender){\r\n            return 1;\r\n        }\r\n        else if (player2.addressOfPlayer == msg.sender){\r\n            return 2;\r\n        }\r\n\r\n    }\r\n\r\n    function getLength() public view  returns (uint) {\r\n      return player1.choiceHash.length;\r\n    }\r\n\r\n    function hitTile(uint tileNumber) public  {\r\n        if (player1.addressOfPlayer == msg.sender && turnVariable==1) {\r\n            emit hitTileEvent(tileNumber,player2.addressOfPlayer);\r\n        }\r\n        else if (player2.addressOfPlayer == msg.sender && turnVariable == 2) {\r\n            emit hitTileEvent(tileNumber,player1.addressOfPlayer);\r\n        }\r\n    }\r\n\r\n    // Taking randomKey as number, but can change to string\r\n    // Should use event emit?\r\n    function revealTile(uint8 pos, uint8 randomKey, uint8 value) public {\r\n        if (msg.sender == player1.addressOfPlayer){\r\n            if( keccak256(abi.encodePacked(randomKey,value)) == player1.choiceHash[pos] ){\r\n                player1.choice[pos] = value;\r\n                emit revealTitleEvent(value, player2.addressOfPlayer, true);\r\n            }else{\r\n                emit revealTitleEvent(value, player2.addressOfPlayer, false);\r\n            }\r\n            turnVariable = 1;\r\n        }\r\n        else if (msg.sender == player2.addressOfPlayer){\r\n            if( keccak256(abi.encodePacked(randomKey,value)) == player2.choiceHash[pos] ){\r\n                player1.choice[pos] = value;\r\n                emit revealTitleEvent(value, player1.addressOfPlayer, true);\r\n            }else{\r\n                emit revealTitleEvent(value, player1.addressOfPlayer, true);\r\n            }\r\n            turnVariable = 2;\r\n        }\r\n    }\r\n\r\n    \r\n\r\n}\r\n",
  "sourcePath": "C:/Users/Shaily Mishra/Desktop/MS/Sem1/Blockchain/Assignments/Assignment2/battlefield_dapp/contracts/game.sol",
  "compiler": {
    "name": "solc",
    "version": "0.5.8+commit.23d335f2.Emscripten.clang"
  },
  "schemaVersion": "3.0.16",
  "updatedAt": "2019-11-29T06:55:03.180Z",
  "devdoc": {
    "methods": {}
  },
  "userdoc": {
    "methods": {}
  }
}