{
  "contractName": "Game",
  "abi": [
    {
      "constant": true,
      "inputs": [],
      "name": "player2",
      "outputs": [
        {
          "name": "addressOfPlayer",
          "type": "address"
        },
        {
          "name": "serialNo",
          "type": "uint8"
        },
        {
          "name": "bet",
          "type": "uint8"
        }
      ],
      "payable": false,
      "stateMutability": "view",
      "type": "function"
    },
    {
      "constant": true,
      "inputs": [],
      "name": "player1",
      "outputs": [
        {
          "name": "addressOfPlayer",
          "type": "address"
        },
        {
          "name": "serialNo",
          "type": "uint8"
        },
        {
          "name": "bet",
          "type": "uint8"
        }
      ],
      "payable": false,
      "stateMutability": "view",
      "type": "function"
    },
    {
      "inputs": [],
      "payable": false,
      "stateMutability": "nonpayable",
      "type": "constructor"
    },
    {
      "anonymous": false,
      "inputs": [
        {
          "indexed": false,
          "name": "who",
          "type": "address"
        }
      ],
      "name": "TestEvent",
      "type": "event"
    },
    {
      "anonymous": false,
      "inputs": [
        {
          "indexed": false,
          "name": "addressOfPlayer",
          "type": "address"
        },
        {
          "indexed": false,
          "name": "choiceHash",
          "type": "bytes32[]"
        },
        {
          "indexed": false,
          "name": "serialNo",
          "type": "uint8"
        }
      ],
      "name": "PlayerEvent",
      "type": "event"
    },
    {
      "anonymous": false,
      "inputs": [
        {
          "indexed": false,
          "name": "consolevalue",
          "type": "string"
        }
      ],
      "name": "consoleEvent",
      "type": "event"
    },
    {
      "anonymous": false,
      "inputs": [
        {
          "indexed": false,
          "name": "consolevalue",
          "type": "uint8"
        }
      ],
      "name": "uintconsoleEvent",
      "type": "event"
    },
    {
      "anonymous": false,
      "inputs": [
        {
          "indexed": false,
          "name": "consolevalue",
          "type": "bytes"
        }
      ],
      "name": "bytesConsoleEvent",
      "type": "event"
    },
    {
      "anonymous": false,
      "inputs": [
        {
          "indexed": false,
          "name": "consolevalue",
          "type": "bytes32"
        }
      ],
      "name": "bytes32ConsoleEvent",
      "type": "event"
    },
    {
      "constant": false,
      "inputs": [],
      "name": "register",
      "outputs": [],
      "payable": false,
      "stateMutability": "nonpayable",
      "type": "function"
    },
    {
      "constant": false,
      "inputs": [
        {
          "name": "choiceHash",
          "type": "bytes32[100]"
        }
      ],
      "name": "setShips",
      "outputs": [],
      "payable": false,
      "stateMutability": "nonpayable",
      "type": "function"
    },
    {
      "constant": true,
      "inputs": [],
      "name": "getLength",
      "outputs": [
        {
          "name": "",
          "type": "uint256"
        }
      ],
      "payable": false,
      "stateMutability": "view",
      "type": "function"
    },
    {
      "constant": false,
      "inputs": [
        {
          "name": "pos",
          "type": "uint8"
        },
        {
          "name": "randomKey",
          "type": "uint8"
        },
        {
          "name": "value",
          "type": "uint8"
        }
      ],
      "name": "revealTile",
      "outputs": [],
      "payable": false,
      "stateMutability": "nonpayable",
      "type": "function"
    }
  ],
  "bytecode": "0x608060405234801561001057600080fd5b506002606a60000160146101000a81548160ff021916908360ff16021790555073a8658699a8b0885690259554a541a30356a24dba606a60000160006101000a81548173ffffffffffffffffffffffffffffffffffffffff021916908373ffffffffffffffffffffffffffffffffffffffff160217905550610ac6806100976000396000f3fe608060405234801561001057600080fd5b50600436106100625760003560e01c80630f6e2bb9146100675780631aa3a008146100ce57806359a5f12d146100d857806369547fc71461013c578063be1c766b14610187578063d30895e4146101a5575b600080fd5b6100cc6004803603610c8081101561007e57600080fd5b8101908080610c8001906064806020026040519081016040528092919082606460200280828437600081840152601f19601f8201169050808301925050505050509192919290505050610209565b005b6100d661036f565b005b6100e06104ef565b604051808473ffffffffffffffffffffffffffffffffffffffff1673ffffffffffffffffffffffffffffffffffffffff1681526020018360ff1660ff1681526020018260ff1660ff168152602001935050505060405180910390f35b6101856004803603606081101561015257600080fd5b81019080803560ff169060200190929190803560ff169060200190929190803560ff169060200190929190505050610541565b005b61018f6109da565b6040518082815260200191505060405180910390f35b6101ad6109e3565b604051808473ffffffffffffffffffffffffffffffffffffffff1673ffffffffffffffffffffffffffffffffffffffff1681526020018360ff1660ff1681526020018260ff1660ff168152602001935050505060405180910390f35b7fab77f9000c19702a713e62164a239e3764dde2ba5265c7551f9a49e0d304530d33604051808273ffffffffffffffffffffffffffffffffffffffff1673ffffffffffffffffffffffffffffffffffffffff16815260200191505060405180910390a16000800160009054906101000a900473ffffffffffffffffffffffffffffffffffffffff1673ffffffffffffffffffffffffffffffffffffffff163373ffffffffffffffffffffffffffffffffffffffff1614156102fc578060006001019060646102d8929190610a35565b50600a6000800160146101000a81548160ff021916908360ff16021790555061036c565b606a60000160009054906101000a900473ffffffffffffffffffffffffffffffffffffffff1673ffffffffffffffffffffffffffffffffffffffff163373ffffffffffffffffffffffffffffffffffffffff16141561036b5780606a600101906064610369929190610a35565b505b5b50565b600073ffffffffffffffffffffffffffffffffffffffff166000800160009054906101000a900473ffffffffffffffffffffffffffffffffffffffff1673ffffffffffffffffffffffffffffffffffffffff16141561042e57336000800160006101000a81548173ffffffffffffffffffffffffffffffffffffffff021916908373ffffffffffffffffffffffffffffffffffffffff16021790555060016000800160146101000a81548160ff021916908360ff1602179055506104ed565b600073ffffffffffffffffffffffffffffffffffffffff16606a60000160009054906101000a900473ffffffffffffffffffffffffffffffffffffffff1673ffffffffffffffffffffffffffffffffffffffff1614156104ec5733606a60000160006101000a81548173ffffffffffffffffffffffffffffffffffffffff021916908373ffffffffffffffffffffffffffffffffffffffff1602179055506002606a60000160146101000a81548160ff021916908360ff1602179055505b5b565b606a8060000160009054906101000a900473ffffffffffffffffffffffffffffffffffffffff16908060000160149054906101000a900460ff16908060690160009054906101000a900460ff16905083565b6000800160009054906101000a900473ffffffffffffffffffffffffffffffffffffffff1673ffffffffffffffffffffffffffffffffffffffff163373ffffffffffffffffffffffffffffffffffffffff16141561081c577f663c04af42a6657427e1e932690741459f43eb198d8a4a43927da1e6583480836040518080602001828103825260158152602001807f4d73672053656e64657220697320706c6179657231000000000000000000000081525060200191505060405180910390a17f1504463d6b9a78773f6f4f9811ba4517c2de8441e70d8e639c794a0ce8dcd1b18282604051602001808360ff1660ff1660f81b81526001018260ff1660ff1660f81b8152600101925050506040516020818303038152906040526040518080602001828103825283818151815260200191508051906020019080838360005b8381101561069c578082015181840152602081019050610681565b50505050905090810190601f1680156106c95780820380516001836020036101000a031916815260200191505b509250505060405180910390a17f3fba35073ed64b641ea2da0e0d3253bd48f91d2caef8348a403f0cda6c7b804c60006001018460ff166064811061070a57fe5b01546040518082815260200191505060405180910390a160006001018360ff166064811061073457fe5b01548282604051602001808360ff1660ff1660f81b81526001018260ff1660ff1660f81b815260010192505050604051602081830303815290604052805190602001201415610817578060006065018460ff166064811061079157fe5b602091828204019190066101000a81548160ff021916908360ff1602179055507f3636f7d0f0a33f27f96e569a946bfb1db3119b7bf9e3ab84476f150d077433f760006065018460ff16606481106107e557fe5b602091828204019190069054906101000a900460ff16604051808260ff1660ff16815260200191505060405180910390a15b6109d5565b606a60000160009054906101000a900473ffffffffffffffffffffffffffffffffffffffff1673ffffffffffffffffffffffffffffffffffffffff163373ffffffffffffffffffffffffffffffffffffffff1614156109d4577f663c04af42a6657427e1e932690741459f43eb198d8a4a43927da1e6583480836040518080602001828103825260158152602001807f4d73672053656e64657220697320706c6179657232000000000000000000000081525060200191505060405180910390a160006001018360ff16606481106108f057fe5b01548282604051602001808360ff1660ff1660f81b81526001018260ff1660ff1660f81b8152600101925050506040516020818303038152906040528051906020012014156109d3578060006065018460ff166064811061094d57fe5b602091828204019190066101000a81548160ff021916908360ff1602179055507f3636f7d0f0a33f27f96e569a946bfb1db3119b7bf9e3ab84476f150d077433f7606a6065018460ff16606481106109a157fe5b602091828204019190069054906101000a900460ff16604051808260ff1660ff16815260200191505060405180910390a15b5b5b505050565b60006064905090565b60008060000160009054906101000a900473ffffffffffffffffffffffffffffffffffffffff16908060000160149054906101000a900460ff16908060690160009054906101000a900460ff16905083565b8260648101928215610a64579160200282015b82811115610a63578251825591602001919060010190610a48565b5b509050610a719190610a75565b5090565b610a9791905b80821115610a93576000816000905550600101610a7b565b5090565b9056fea165627a7a72305820ada049d60f82740f7c6d2e1efd71fb73b1a5689b66c096ad253078e11b03508e0029",
  "source": "pragma solidity ^0.5.0;\r\n\r\ncontract Game {\r\n\r\n    struct Player{\r\n        address payable addressOfPlayer;\r\n        uint8 serialNo;\r\n        bytes32[100] choiceHash;\r\n        uint8[100] choice;\r\n        uint8 bet;\r\n    }\r\n\r\n    Player public player1;\r\n    Player public player2;\r\n\r\nevent TestEvent(address who);   // declaring event\r\nevent PlayerEvent(address addressOfPlayer, bytes32[] choiceHash, uint8 serialNo);\r\n\r\nevent consoleEvent(string consolevalue);\r\nevent uintconsoleEvent(uint8 consolevalue);\r\nevent bytesConsoleEvent(bytes consolevalue);\r\nevent bytes32ConsoleEvent(bytes32 consolevalue);\r\n\r\n\tconstructor() public {\r\n        // player1.serialNo = 1;\r\n        player2.serialNo = 2;\r\n        // player1.addressOfPlayer = msg.sender;\r\n        player2.addressOfPlayer = 0xA8658699A8B0885690259554a541a30356A24dba;\r\n\t}\r\n\r\n\r\n    function register() public    {\r\n        if (player1.addressOfPlayer == address(0)){\r\n            player1.addressOfPlayer = msg.sender;\r\n            player1.serialNo = 1;\r\n        }\r\n        else if (player2.addressOfPlayer == address(0)){\r\n             player2.addressOfPlayer = msg.sender;\r\n             player2.serialNo = 2;\r\n        }\r\n    }\r\n\r\n    function setShips(bytes32[100] memory choiceHash) public {\r\n\r\n        emit TestEvent(msg.sender); // logging event\r\n\r\n        if (msg.sender == player1.addressOfPlayer){\r\n            player1.choiceHash = choiceHash;\r\n            player1.serialNo = 10;\r\n        }\r\n        else if (msg.sender == player2.addressOfPlayer){\r\n            player2.choiceHash = choiceHash;\r\n        }\r\n    }\r\n\r\n\r\n\r\n    function getLength() public view  returns (uint) {\r\n      return player1.choiceHash.length;\r\n    }\r\n\r\n    // Taking randomKey as number, but can change to string\r\n    // Should use event emit?\r\n    function revealTile(uint8 pos, uint8 randomKey, uint8 value) public {\r\n        if (msg.sender == player1.addressOfPlayer){\r\n            emit consoleEvent('Msg Sender is player1');\r\n            emit bytesConsoleEvent(abi.encodePacked(randomKey,value));\r\n            emit bytes32ConsoleEvent(player1.choiceHash[pos]);\r\n            if( keccak256(abi.encodePacked(randomKey,value)) == player1.choiceHash[pos] ){\r\n                player1.choice[pos] = value;\r\n                emit uintconsoleEvent(player1.choice[pos]);\r\n            }\r\n        }\r\n        else if (msg.sender == player2.addressOfPlayer){\r\n            emit consoleEvent('Msg Sender is player2');\r\n            if( keccak256(abi.encodePacked(randomKey,value)) == player1.choiceHash[pos] ){\r\n                player1.choice[pos] = value;\r\n                emit uintconsoleEvent(player2.choice[pos]);\r\n            }\r\n        }\r\n    }\r\n\r\n}\r\n",
  "sourcePath": "C:/Users/Shaily Mishra/Desktop/MS/Sem1/Blockchain/Assignments/Assignment2/battlefield_dapp/contracts/game.sol",
  "compiler": {
    "name": "solc",
    "version": "0.5.8+commit.23d335f2.Emscripten.clang"
  },
  "schemaVersion": "3.0.16",
  "updatedAt": "2019-11-10T16:21:20.246Z",
  "devdoc": {
    "methods": {}
  },
  "userdoc": {
    "methods": {}
  }
}