{
  "contractName": "Game",
  "abi": [
    {
      "constant": true,
      "inputs": [],
      "name": "player2",
      "outputs": [
        {
          "name": "addressOfPlayer",
          "type": "address"
        },
        {
          "name": "serialNo",
          "type": "uint8"
        },
        {
          "name": "bet",
          "type": "uint8"
        }
      ],
      "payable": false,
      "stateMutability": "view",
      "type": "function"
    },
    {
      "constant": true,
      "inputs": [],
      "name": "player1",
      "outputs": [
        {
          "name": "addressOfPlayer",
          "type": "address"
        },
        {
          "name": "serialNo",
          "type": "uint8"
        },
        {
          "name": "bet",
          "type": "uint8"
        }
      ],
      "payable": false,
      "stateMutability": "view",
      "type": "function"
    },
    {
      "inputs": [],
      "payable": false,
      "stateMutability": "nonpayable",
      "type": "constructor"
    },
    {
      "anonymous": false,
      "inputs": [
        {
          "indexed": false,
          "name": "who",
          "type": "address"
        }
      ],
      "name": "TestEvent",
      "type": "event"
    },
    {
      "anonymous": false,
      "inputs": [
        {
          "indexed": false,
          "name": "addressOfPlayer",
          "type": "address"
        },
        {
          "indexed": false,
          "name": "choiceHash",
          "type": "bytes32[100]"
        },
        {
          "indexed": false,
          "name": "serialNo",
          "type": "uint8"
        }
      ],
      "name": "PlayerEvent",
      "type": "event"
    },
    {
      "anonymous": false,
      "inputs": [
        {
          "indexed": false,
          "name": "consolevalue",
          "type": "string"
        }
      ],
      "name": "consoleEvent",
      "type": "event"
    },
    {
      "anonymous": false,
      "inputs": [
        {
          "indexed": false,
          "name": "consolevalue",
          "type": "uint8"
        }
      ],
      "name": "uintconsoleEvent",
      "type": "event"
    },
    {
      "anonymous": false,
      "inputs": [
        {
          "indexed": false,
          "name": "consolevalue",
          "type": "bytes"
        }
      ],
      "name": "bytesConsoleEvent",
      "type": "event"
    },
    {
      "anonymous": false,
      "inputs": [
        {
          "indexed": false,
          "name": "consolevalue",
          "type": "bytes32"
        }
      ],
      "name": "bytes32ConsoleEvent",
      "type": "event"
    },
    {
      "anonymous": false,
      "inputs": [
        {
          "indexed": false,
          "name": "isTileRevealed",
          "type": "bool"
        }
      ],
      "name": "revealTitle",
      "type": "event"
    },
    {
      "constant": false,
      "inputs": [],
      "name": "register",
      "outputs": [],
      "payable": false,
      "stateMutability": "nonpayable",
      "type": "function"
    },
    {
      "constant": false,
      "inputs": [
        {
          "name": "choiceHash",
          "type": "bytes32[100]"
        }
      ],
      "name": "setShips",
      "outputs": [],
      "payable": false,
      "stateMutability": "nonpayable",
      "type": "function"
    },
    {
      "constant": true,
      "inputs": [],
      "name": "getLength",
      "outputs": [
        {
          "name": "",
          "type": "uint256"
        }
      ],
      "payable": false,
      "stateMutability": "view",
      "type": "function"
    },
    {
      "constant": false,
      "inputs": [
        {
          "name": "pos",
          "type": "uint8"
        },
        {
          "name": "randomKey",
          "type": "uint8"
        },
        {
          "name": "value",
          "type": "uint8"
        }
      ],
      "name": "revealTile",
      "outputs": [],
      "payable": false,
      "stateMutability": "nonpayable",
      "type": "function"
    }
  ],
  "bytecode": "0x608060405234801561001057600080fd5b50610be9806100206000396000f3fe608060405234801561001057600080fd5b50600436106100625760003560e01c80630f6e2bb9146100675780631aa3a008146100ce57806359a5f12d146100d857806369547fc71461013c578063be1c766b14610187578063d30895e4146101a5575b600080fd5b6100cc6004803603610c8081101561007e57600080fd5b8101908080610c8001906064806020026040519081016040528092919082606460200280828437600081840152601f19601f8201169050808301925050505050509192919290505050610209565b005b6100d661030c565b005b6100e0610702565b604051808473ffffffffffffffffffffffffffffffffffffffff1673ffffffffffffffffffffffffffffffffffffffff1681526020018360ff1660ff1681526020018260ff1660ff168152602001935050505060405180910390f35b6101856004803603606081101561015257600080fd5b81019080803560ff169060200190929190803560ff169060200190929190803560ff169060200190929190505050610754565b005b61018f610afd565b6040518082815260200191505060405180910390f35b6101ad610b06565b604051808473ffffffffffffffffffffffffffffffffffffffff1673ffffffffffffffffffffffffffffffffffffffff1681526020018360ff1660ff1681526020018260ff1660ff168152602001935050505060405180910390f35b6000800160009054906101000a900473ffffffffffffffffffffffffffffffffffffffff1673ffffffffffffffffffffffffffffffffffffffff163373ffffffffffffffffffffffffffffffffffffffff16141561029957806000600101906064610275929190610b58565b50600a6000800160146101000a81548160ff021916908360ff160217905550610309565b606a60000160009054906101000a900473ffffffffffffffffffffffffffffffffffffffff1673ffffffffffffffffffffffffffffffffffffffff163373ffffffffffffffffffffffffffffffffffffffff1614156103085780606a600101906064610306929190610b58565b505b5b50565b600073ffffffffffffffffffffffffffffffffffffffff166000800160009054906101000a900473ffffffffffffffffffffffffffffffffffffffff1673ffffffffffffffffffffffffffffffffffffffff16141561050557336000800160006101000a81548173ffffffffffffffffffffffffffffffffffffffff021916908373ffffffffffffffffffffffffffffffffffffffff16021790555060016000800160146101000a81548160ff021916908360ff1602179055507f663c04af42a6657427e1e932690741459f43eb198d8a4a43927da1e65834808360405180806020018281038252600e8152602001807f506c61796572312069732073657400000000000000000000000000000000000081525060200191505060405180910390a17fef006fce34e0467a54dac1a5ee772fd63adadaa386fce7cfd16a7fae0533a08e6000800160009054906101000a900473ffffffffffffffffffffffffffffffffffffffff1660006001016000800160149054906101000a900460ff16604051808473ffffffffffffffffffffffffffffffffffffffff1673ffffffffffffffffffffffffffffffffffffffff16815260200183606480156104e5576020028201915b8154815260200190600101908083116104d1575b50508260ff1660ff168152602001935050505060405180910390a1610700565b600073ffffffffffffffffffffffffffffffffffffffff16606a60000160009054906101000a900473ffffffffffffffffffffffffffffffffffffffff1673ffffffffffffffffffffffffffffffffffffffff1614156106ff5733606a60000160006101000a81548173ffffffffffffffffffffffffffffffffffffffff021916908373ffffffffffffffffffffffffffffffffffffffff1602179055506002606a60000160146101000a81548160ff021916908360ff1602179055507f663c04af42a6657427e1e932690741459f43eb198d8a4a43927da1e65834808360405180806020018281038252600e8152602001807f506c61796572322069732073657400000000000000000000000000000000000081525060200191505060405180910390a17fef006fce34e0467a54dac1a5ee772fd63adadaa386fce7cfd16a7fae0533a08e606a60000160009054906101000a900473ffffffffffffffffffffffffffffffffffffffff16606a600101606a60000160149054906101000a900460ff16604051808473ffffffffffffffffffffffffffffffffffffffff1673ffffffffffffffffffffffffffffffffffffffff16815260200183606480156106e3576020028201915b8154815260200190600101908083116106cf575b50508260ff1660ff168152602001935050505060405180910390a15b5b565b606a8060000160009054906101000a900473ffffffffffffffffffffffffffffffffffffffff16908060000160149054906101000a900460ff16908060690160009054906101000a900460ff16905083565b6000800160009054906101000a900473ffffffffffffffffffffffffffffffffffffffff1673ffffffffffffffffffffffffffffffffffffffff163373ffffffffffffffffffffffffffffffffffffffff161415610927577f663c04af42a6657427e1e932690741459f43eb198d8a4a43927da1e6583480836040518080602001828103825260168152602001807f4d73672053656e64657220697320506c6179657220310000000000000000000081525060200191505060405180910390a160006001018360ff166064811061082757fe5b01548282604051602001808360ff1660ff1660f81b81526001018260ff1660ff1660f81b8152600101925050506040516020818303038152906040528051906020012014156108e5578060006065018460ff166064811061088457fe5b602091828204019190066101000a81548160ff021916908360ff1602179055507fc096d46979009bb0ea3ec617cb8e713ae7f4fff458a23965885bbb0d4314b7d16001604051808215151515815260200191505060405180910390a1610922565b7fc096d46979009bb0ea3ec617cb8e713ae7f4fff458a23965885bbb0d4314b7d16000604051808215151515815260200191505060405180910390a15b610af8565b606a60000160009054906101000a900473ffffffffffffffffffffffffffffffffffffffff1673ffffffffffffffffffffffffffffffffffffffff163373ffffffffffffffffffffffffffffffffffffffff161415610af7577f663c04af42a6657427e1e932690741459f43eb198d8a4a43927da1e6583480836040518080602001828103825260158152602001807f4d73672053656e64657220697320706c6179657232000000000000000000000081525060200191505060405180910390a160006001018360ff16606481106109fb57fe5b01548282604051602001808360ff1660ff1660f81b81526001018260ff1660ff1660f81b815260010192505050604051602081830303815290604052805190602001201415610ab9578060006065018460ff1660648110610a5857fe5b602091828204019190066101000a81548160ff021916908360ff1602179055507fc096d46979009bb0ea3ec617cb8e713ae7f4fff458a23965885bbb0d4314b7d16001604051808215151515815260200191505060405180910390a1610af6565b7fc096d46979009bb0ea3ec617cb8e713ae7f4fff458a23965885bbb0d4314b7d16000604051808215151515815260200191505060405180910390a15b5b5b505050565b60006064905090565b60008060000160009054906101000a900473ffffffffffffffffffffffffffffffffffffffff16908060000160149054906101000a900460ff16908060690160009054906101000a900460ff16905083565b8260648101928215610b87579160200282015b82811115610b86578251825591602001919060010190610b6b565b5b509050610b949190610b98565b5090565b610bba91905b80821115610bb6576000816000905550600101610b9e565b5090565b9056fea165627a7a723058201c758e3e4d49bb2a32eaed14167154379b47f7163ac41e2aa96b4313a6dff8630029",
  "source": "pragma solidity ^0.5.0;\r\n\r\ncontract Game {\r\n\r\n    struct Player{\r\n        address payable addressOfPlayer;\r\n        uint8 serialNo;\r\n        bytes32[100] choiceHash;\r\n        uint8[100] choice;\r\n        uint8 bet;\r\n    }\r\n\r\n    Player public player1;\r\n    Player public player2;\r\n\r\nevent TestEvent(address who);   // declaring event\r\nevent PlayerEvent(address addressOfPlayer, bytes32[100] choiceHash, uint8 serialNo);\r\n\r\nevent consoleEvent(string consolevalue);\r\nevent uintconsoleEvent(uint8 consolevalue);\r\nevent bytesConsoleEvent(bytes consolevalue);\r\nevent bytes32ConsoleEvent(bytes32 consolevalue);\r\n\r\nevent revealTitle(bool isTileRevealed);\r\n\r\n\tconstructor() public {\r\n\t}\r\n\r\n    function register() public    {\r\n        if (player1.addressOfPlayer == address(0)){\r\n            player1.addressOfPlayer = msg.sender;\r\n            player1.serialNo = 1;\r\n            emit consoleEvent('Player1 is set');\r\n            emit PlayerEvent(player1.addressOfPlayer, player1.choiceHash, player1.serialNo);\r\n        }\r\n        else if (player2.addressOfPlayer == address(0)){\r\n             player2.addressOfPlayer = msg.sender;\r\n             player2.serialNo = 2;\r\n             emit consoleEvent('Player2 is set');\r\n             emit PlayerEvent(player2.addressOfPlayer, player2.choiceHash, player2.serialNo);\r\n        }\r\n    }\r\n\r\n    function setShips(bytes32[100] memory choiceHash) public {\r\n        if (msg.sender == player1.addressOfPlayer){\r\n            player1.choiceHash = choiceHash;\r\n            player1.serialNo = 10;\r\n        }\r\n        else if (msg.sender == player2.addressOfPlayer){\r\n            player2.choiceHash = choiceHash;\r\n        }\r\n    }\r\n\r\n    function getLength() public view  returns (uint) {\r\n      return player1.choiceHash.length;\r\n    }\r\n\r\n    // Taking randomKey as number, but can change to string\r\n    // Should use event emit?\r\n    function revealTile(uint8 pos, uint8 randomKey, uint8 value) public {\r\n        if (msg.sender == player1.addressOfPlayer){\r\n            emit consoleEvent('Msg Sender is Player 1');\r\n            if( keccak256(abi.encodePacked(randomKey,value)) == player1.choiceHash[pos] ){\r\n                player1.choice[pos] = value;\r\n                emit revealTitle(true);\r\n            }else{\r\n                emit revealTitle(false);\r\n            }\r\n        }\r\n        else if (msg.sender == player2.addressOfPlayer){\r\n            emit consoleEvent('Msg Sender is player2');\r\n            if( keccak256(abi.encodePacked(randomKey,value)) == player1.choiceHash[pos] ){\r\n                player1.choice[pos] = value;\r\n                emit revealTitle(true);\r\n            }else{\r\n                emit revealTitle(false);\r\n            }\r\n        }\r\n    }\r\n\r\n    \r\n\r\n}\r\n",
  "sourcePath": "C:/Users/Shaily Mishra/Desktop/MS/Sem1/Blockchain/Assignments/Assignment2/battlefield_dapp/contracts/game.sol",
  "compiler": {
    "name": "solc",
    "version": "0.5.8+commit.23d335f2.Emscripten.clang"
  },
  "schemaVersion": "3.0.16",
  "updatedAt": "2019-11-23T07:25:27.691Z",
  "devdoc": {
    "methods": {}
  },
  "userdoc": {
    "methods": {}
  }
}